:01002000E9F6
:05002800220D20FCC9BF
:070030001A22130D20FAC98A
:08004000F5E521F4C3C38000C3
:20008000C5D52AB6280BE53A6E67E7E12318F3E804D1C1E1F041E60220FAF1D921F2C33463
:0C00A00020022334CD80FF3E01E091C916
:20010000C35301CEED6666CC0D000B03730083000C000D0008111F8889000EDCCC6EE6DD1B
:13012000DDD999BBBB67636E0EECCCDDDC999FBBB9333E33
:060134005469746C6500C3
:20014400000000000000000001000000FAF0C3F357AF3100E02100C00EA0EF21F0C30E186B
:20016400EF7AEAF0C3CD7C02AFE042E043E041E04A3E07E04B11C4012180FF0E0AF7CD80A9
:20018400FF019C00CD5F023EE4E047E0483E1BE0493EC0E040AFE00F3E01E0FFE090AF2184
:2001A400F2C32277E026CDF603FBCD0002760018FCFBC9F3C9F3F802AFE00F7EFBE0FFC9A1
:0A01C4003EC0E0463E283D20FDC984
:0101E000C955
:01148600C99C
:20023F0021F4C32A5F5623B2C87BB920F67AB820F2545D1B1B2A1247132A1213B0C818F56C
:20025F0021F4C32AB628032318F9783271C9F04087D0AFE0917600F091B728F9C9F040878E
:20027F00D0F044FE9230FAF044FE9138FAF040E67FE040C9C5F8042A4F46CD3F02C1C9C551
:0A029F00F8042A4F46CD5F02C1C9E2
:2003F60021A0C0360021A1C0360021A2C0360021A3C0360021A4C0360021A5C0360021A6C7
:20041600C0360021A7C0360021A8C0360021A9C0360021AAC0360021ABC0360021ACC0364D
:200436000021ADC0360021AEC0360021AFC0360021B0C0360021B1C0360021B2C0360021DE
:20045600B3C0360021B4C0360021B5C0360021B6C0360021B7C0360021B8C0360021B9C042
:20047600360021BAC0360021BBC0360021BCC0360021BDC0360021BEC0360021BFC036003B
:2004960021C0C0360021C1C0360021C2C0360021C3C0360021C4C0360021C5C0360021C646
:2004B600C0360021C7C0360021C8C0360021C9C0360021CAC0360021CBC0360021CCC036ED
:2004D6000021CDC0360021CEC0360021CFC0360021D0C0360021D1C0360021D2C03600217E
:2004F600D3C0360021D4C0360021D5C0360021D6C0360021D7C0360021D8C0360021D9C0C2
:20051600360021DAC0360021DBC0360021DCC0360021DDC0360021DEC0360021DFC03600DA
:2005360021E0C0360021E1C0360021E2C0360021E3C0360021E4C0360021E5C0360021E6C5
:20055600C0360021E7C0360021E8C0360021E9C0360021EAC0360021EBC0360021ECC0368C
:200576000021EDC0360021EEC0360021EFC0360021F0C0360021F1C0360021F2C03600211D
:20059600F3C0360021F4C0360021F5C0360021F6C0360021F7C0360021F8C0360021F9C041
:2005B600360021FAC0360021FBC0360021FCC0360021FDC0360021FEC0360021FFC036007A
:2005D6002100C136002101C136002102C136002103C136002104C136002105C1360021063F
:2005F600C136002107C136002108C136002109C13600210AC13600210BC13600210CC13625
:2006160000210DC13600210EC13600210FC136002110C136002111C136002112C1360021B6
:2006360013C136002114C136002115C136002116C136002117C136002118C136002119C1B9
:200656003600211AC13600211BC13600211CC13600211DC13600211EC13600211FC1360013
:200676002120C136002121C136002122C136002123C136002124C136002125C136002126BE
:20069600C136002127C136002128C136002129C13600212AC13600212BC13600212CC136C4
:2006B60000212DC13600212EC13600212FC136002130C136002131C136002132C136002156
:2006D60033C136002134C136002135C136002136C136002137C136002138C136002139C139
:2006F6003600213AC13600213BC13600213CC13600213DC13600213EC13600213FC13600B3
:200716002140C136002141C136002142C136002143C136002144C136002145C1360021463D
:20073600C136002147C136002148C136002149C13600214AC13600214BC13600214CC13663
:2007560000214DC13600214EC13600214FC136002150C136002151C136002152C1360021F5
:2007760053C136002154C136002155C136002156C136002157C136002158C136002159C1B8
:200796003600215AC13600215BC13600215CC13600215DC13600215EC13600215FC1360052
:2007B6002160C136002161C136002162C136002163C136002164C136002165C136002166BD
:2007D600C136002167C136002168C136002169C13600216AC13600216BC13600216CC13603
:2007F60000216DC13600216EC13600216FC136002170C136002171C136002172C136002195
:2008160073C136002174C136002175C136002176C136002177C136002178C136002179C137
:200836003600217AC13600217BC13600217CC13600217DC13600217EC13600217FC13600F1
:200856002180C136002181C136002182C136002183C136002184C136002185C1360021863C
:20087600C136002187C136002188C136002189C13600218AC13600218BC13600218CC136A2
:2008960000218DC13600218EC13600218FC136002190C136002191C136002192C136002134
:2008B60093C136002194C136002195C136002196C136002197C136002198C136002199C1B7
:2008D6003600219AC13600219BC13600219CC13600219DC13600219EC13600219FC1360091
:2008F60021A0C1360021A1C1360021A2C1360021A3C1360021A4C1360021A5C1360021A6BC
:20091600C1360021A7C1360021A8C1360021A9C1360021AAC1360021ABC1360021ACC13641
:200936000021ADC1360021AEC1360021AFC1360021B0C1360021B1C1360021B2C1360021D3
:20095600B3C1360021B4C1360021B5C1360021B6C1360021B7C1360021B8C1360021B9C136
:20097600360021BAC1360021BBC1360021BCC1360021BDC1360021BEC1360021BFC1360030
:2009960021C0C1360021C1C1360321C2C1360121C3C1360121C4C1360121C5C1360121C634
:2009B600C1360121C7C1360121C8C1360121C9C1360121CAC1360121CBC1360121CCC136DB
:2009D6000121CDC1360221CEC1360021CFC1360021D0C1360021D1C1360021D2C136002170
:2009F600D3C1360021D4C1360021D5C1360021D6C1360021D7C1360021D8C1360021D9C1B6
:200A1600360021DAC1360021DBC1360021DCC1360021DDC1360021DEC1360021DFC13600CF
:200A360021E0C1360021E1C1360021E2C1360021E3C1360021E4C1360021E5C1360021E6BA
:200A5600C1360021E7C1360021E8C1360021E9C1360321EAC1360121EBC1360121ECC1367B
:200A76000121EDC1360121EEC1360121EFC1360121F0C1360121F1C1360121F2C13601210B
:200A9600F3C1360121F4C1360121F5C1360221F6C1360021F7C1360021F8C1360021F9C131
:200AB600360021FAC1360021FBC1360021FCC1360021FDC1360021FEC1360021FFC136006F
:200AD6002100C236002101C236002102C236002103C236002104C236002105C23600210634
:200AF600C236002107C236002108C236002109C23600210AC23600210BC23600210CC23619
:200B160000210DC23600210EC23600210FC236002110C236002111C236032112C2360121A7
:200B360013C236012114C236012115C236012116C236012117C236012118C236012119C2A7
:200B56003601211AC23601211BC23601211CC23601211DC23602211EC23600211FC2360002
:200B76002120C236002121C236002122C236002123C236002124C236002125C236002126B3
:200B9600C236002127C236002128C236002129C23600212AC23600212BC23600212CC236B8
:200BB60000212DC23600212EC23600212FC236002130C236002131C236002132C23600214B
:200BD60033C236002134C236002135C236002136C236002137C236002138C236002139C22D
:200BF6003603213AC23601213BC23601213CC23601213DC23601213EC23601213FC236019F
:200C16002140C236012141C236012142C236012143C236012144C236012145C2360221462B
:200C3600C236002147C236002148C236002149C23600214AC23600214BC23600214CC23657
:200C560000214DC23600214EC23600214FC236002150C236002151C236002152C2360021EA
:200C760053C236002154C236002155C236002156C236002157C236002158C236062159C2A6
:200C96003606215AC23606215BC23606215CC23606215DC23606215EC23606215FC236061D
:200CB6002160C236062161C236032162C236012163C236012164C236012165C236012166A5
:200CD600C236012167C236012168C236012169C23601216AC23601216BC23601216CC236F1
:200CF60001216DC23602216EC23606216FC236062170C236062171C236062172C236062169
:200D160073C236062174C236062175C236062176C236062177C236062178C236062179C207
:200D36003606217AC23606217BC23606217CC23606217DC23606217EC23606217FC23606BC
:200D56002180C236042181C236042182C236042183C236042184C236042185C23604218619
:200D7600C236042187C236042188C236042189C23604218AC23604218BC23604218CC2367E
:200D960004218DC23604218EC23604218FC236042190C236042191C236042192C23604210D
:200DB60093C236042194C236042195C236042196C236042197C236042198C236042199C293
:200DD6003604219AC23604219BC23604219CC23604219DC23604219EC23604219FC236046A
:200DF60021A0C2360421A1C2360421A2C2360421A3C2360421A4C2360421A5C2360421A699
:200E1600C2360421A7C2360421A8C2360421A9C2360421AAC2360421ABC2360421ACC2361D
:200E36000421ADC2360421AEC2360421AFC2360421B0C2360421B1C2360421B2C2360421AC
:200E5600B3C2360421B4C2360421B5C2360421B6C2360421B7C2360421B8C2360421B9C212
:200E7600360421BAC2360421BBC2360421BCC2360421BDC2360421BEC2360421BFC2360409
:200E960021C0C2360421C1C2360421C2C2360421C3C2360421C4C2360421C5C2360421C618
:200EB600C2360421C7C2360421C8C2360421C9C2360421CAC2360421CBC2360421CCC236BD
:200ED6000421CDC2360421CEC2360421CFC2360421D0C2360421D1C2360421D2C23604214C
:200EF600D3C2360421D4C2360421D5C2360421D6C2360421D7C2360421D8C2360421D9C292
:200F1600360421DAC2360421DBC2360421DCC2360421DDC2360421DEC2360421DFC23604A8
:200F360021E0C2360421E1C2360421E2C2360421E3C2360421E4C2360421E5C2360421E697
:200F5600C2360421E7C2360421E8C2360421E9C2360421EAC2360421EBC2360421ECC2365C
:200F76000421EDC2360421EEC2360421EFC2360421F0C2360421F1C2360421F2C2360421EB
:200F9600F3C2360421F4C2360421F5C2360421F6C2360421F7C2360421F8C2360421F9C211
:200FB600360421FAC2360421FBC2360421FCC2360421FDC2360421FEC2360421FFC2360448
:200FD6002100C336042101C336042102C336042103C336042104C336042105C33604210611
:200FF600C336042107C336042108C336042109C33604210AC33604210BC33604210CC336F5
:2010160004210DC33604210EC33604210FC336042110C336042111C336042112C336042184
:2010360013C336042114C336042115C336042116C336042117C336042118C336042119C389
:201056003604211AC33604211BC33604211CC33604211DC33604211EC33604211FC33604E1
:201076002120C336042121C336042122C336042123C336042124C336042125C33604212690
:20109600C336042127C336042128C336042129C33604212AC33604212BC33604212CC33694
:2010B60004212DC33604212EC33604212FC336042130C336042131C336042132C336042124
:2010D60033C336042134C336042135C336042136C336042137C336042138C336042139C309
:2010F6003604213AC33604213BC33604213CC33604213DC33604213EC33604213FC3360481
:201116002140C336042141C336042142C336042143C336042144C336042145C3360421460F
:20113600C336042147C336042148C336042149C33604214AC33604214BC33604214CC33633
:2011560004214DC33604214EC33604214FC336042150C336042151C336042152C3360421C3
:2011760053C336042154C336042155C336042156C336042157C336042158C336042159C388
:201196003604215AC33604215BC33604215CC33604215DC33604215EC33604215FC3360420
:2011B6002160C336042161C336042162C336042163C336042164C336042165C3360421668F
:2011D600C336042167C336042168C336042169C33604216AC33604216BC33604216CC336D3
:2011F60004216DC33604216EC33604216FC336042170C336002171C336002172C33600216F
:2012160073C336002174C336002175C336002176C336002177C336002178C336002179C31F
:201236003600217AC33600217BC33600217CC33600217DC33600217EC33600217FC33600DB
:201256002180C336FF2181C336FF2182C336012183C336012184C336012185C33601218624
:20127600C336012187C336012188C336FF2189C336FF218AC33610218BC33610218CC3366A
:2012960010218DC33610218EC33610218FC336102190C336FF2191C336FF2192C3360121DF
:2012B60093C336012194C336012195C336012196C336012197C336012198C336FF2199C39B
:2012D60036FF219AC33611219BC33611219CC33611219DC33611219EC33611219FC3361116
:2012F60021A0C336FF21A1C336FF21A2C3368021A3C3368021A4C3368021A5C3368021A6A8
:20131600C3368021A7C3368021A8C336FF21A9C336FF21AAC3368821ABC3368821ACC3361B
:201336008821ADC3368821AEC3368821AFC3368821B0C3365521B1C3360021B2C336AA219E
:20135600B3C3360021B4C3365521B5C3360021B6C336AA21B7C3360021B8C3365521B9C3CA
:20137600360021BAC336AA21BBC3360021BCC3365521BDC3360021BEC336AA21BFC3360071
:2013960021C0C3360021C1C3360021C2C3360021C3C3360021C4C3360021C5C3360021C625
:2013B600C3360021C7C3360021C8C336FF21C9C336FF21CAC336FF21CBC336AA21CCC33622
:2013D600FF21CDC3360021CEC3365521CFC3360021D0C3360021D1C3360021D2C336002109
:2013F600D3C3360021D4C3360021D5C3360021D6C3360021D7C3360021D8C3360021D9C39E
:20141600360021DAC336FF21DBC336FF21DCC3360021DDC336FF21DEC336FF21DFC33600BD
:2014360021E0C3360021E1C3360021E2C3360021E3C3360021E4C3360021E5C3360021E6A4
:20145600C3360021E7C3360021E8C3360021E9C3360021EAC3360021EBC3360021ECC33668
:101476000021EDC3360021EEC3360021EFC336004E
:200200002170C3E53E07F533AFF533CDEC02E80421A0C0E5112812D5AFF533AFF533CD8C2D
:1F02200003E806F040F601E040F040F680E040F0433CE043216400E5CDE302E80218F021
:2002A900C5CDC60206321800180018001800180005C2AF0200C1180018001800C91B7BB299
:2002C900C806331800180018001800180005C2CC020018001800180018E3F8025E2356CD26
:2002E900A902C91690F040CB6728021680C5F8042A5F2A4F2A666FCB337BE60F82577BE64F
:20030900F05FCB5A2802CBA2F041E60220FA2A121C2A121C2A121CF041E60220FA2A121C03
:200329002A121C2A121CF041E60220FA2A121C2A121C2A121CF041E60220FA2A121C2A1202
:200349001C2A121CF041E60220FA2A121C2A121C2A121CF041E60220FA2A12130D20A3C1D2
:20036900C9F041E60220FA0A22031B7AB320F2C9C5F8093A573A5F3A473A4F3A6E67CD6AE6
:2003890003C1C9C5F8042A575EF8093A473A4F3A666FCDA903C1C9E5F040CB772809180C5E
:2003A900E5F040CB5F2005210098180321009CC5CB33CB037BE60384473EE0A3824FE1D13B
:2003C900D5C5F041E60220FA2A0279E6E05F793CE61FB34F1520EBC1D11DC8D578E6FC5F9C
:0D03E9003E20814F8891E603B347C518D52B
:00000001FF
